:08000000803102288731FD2F39
:100F700016302100970008008731C52787312200ED
:100F80008D168D12BF2F803102288731DB278731E4
:100F90008731CF2787318731B827873108007030F4
:100FA0002100990098012200960121001A1FD92FD3
:100FB000DA2FD52F0800220090018F018C018D01BE
:100FC0008E010F3021009000FF308C00CF308D005B
:100FD000FF308E00FF308F00FF3023008F000F3076
:100FE0008D00073090003F308C00240090018D016F
:100FF0002100951722009D01080020008731BC2F99
:020000040001F9
:08000000FF3FFF3FFF3FFF3F00
:04000E00E43FFF3F8D
:00000001FF
