:0400000080315028D3
:100008007E1480310B1E09280A281E288B1C0D28F7
:100018000E281E2881315D21803122000D0E013904
:10002800F9000130F906F90E0D087906EF3979065D
:100038008D004E280B1F212822284E282100111C34
:10004800262827284E282000111C2B282C284E282B
:100058008031D0208031033020006602E830031957
:100068006502031C38283928492822000D0E013959
:10007800F9000130F906F90E0D087906EF3979060D
:100088008D002000E501E6014E280130E50700302B
:10009800E63D4E287E10090080315228F001F1011A
:1000A800F201F301F401F501F6012030840000307B
:1000B8008500473081314B218031A03084000030E9
:1000C8008500383081314B21803120308400013067
:1000D8008500403081314B2180317E1020008031F5
:1000E800E528220090018F018C018D018E010F30CF
:1000F80021009000FF308C00CF308D00FF308E0043
:10010800FF308F00FF3023008F000E308D00073046
:1001180090003F308C00240090018D01210095173C
:1001280022009D01080000340034003400340034FB
:100138000034003400340034003400340034003417
:100148000034003400340034003400340034003407
:1001580000340034003400340034003400340034F7
:100168000034003400342000990115309700A03085
:10017800960011101708F3001608F2002100111458
:1001880066302000E7000130E800813151218031DC
:100198003130200098000800200011107308F80082
:1001A8007208F70081310C2180317008710403193D
:1001B800DE28DF28E42871088A0070080A008031E8
:1001C80008008031F920803129302000EA0096307B
:1001D800E9007F30890BEE28E90BEE28EA0BEE28C0
:1001E80022000D12F62880315028813142218031B9
:1001F80080317520803181312A218031813162211D
:1002080080318031B720803181311D218031080053
:100218002000181D1029112918291810780897008E
:100228007708960018141C29780897007708960014
:1002380008008B102100151767302000E7000130F7
:10024800E8008131572181310B16080070302100F8
:10025800990098012200960121001A1F3429352996
:10026800302908007408750403193B293C294129E1
:1002780075088A0074080A00813108002400940176
:10028800083095009601133092009512080064001A
:1002980080010131890B4C29003420006808F100E5
:1002A8006708F000080020006808F5006708F400F7
:1002B80008008B1081313621813108001630210069
:0802C80097000800080008007F
:020000040001F9
:08000000FF3FFF3FFF3FFF3F00
:04000E00E43FFF3F8D
:00000001FF
