:08000000803102288731DD2F59
:10000A002400961508002400110808002000911504
:10001A0008001630210097000800240096161616CC
:10002A0008002400961216160800F0007008240032
:10003A00910008002100DE10DD010E3008008F312A
:10004A00FA278031013008008F31FA2780310230D7
:10005A0008008F31FA278031013008008F31FD27DF
:10006A0080310030080080311620803105300800C8
:10007A008031122080310A3008008031122080310C
:10008A00093008002100DE10DD010E3008000030C2
:10009A0081317B21803108002400160E890C890CDD
:1000AA00013908002000911D5B285C2857280800A8
:1000BA00640080010131890B5E28003421005E1042
:1000CA008031052080310430080021005E14583543
:1000DA0080311A208031033008002400940108304E
:1000EA0095009601133092009512080021005E14C3
:1000FA000314580D80311A20803105300800703001
:10010A002100990098012200960121001A1F8E28C9
:10011A008F288A2808008031722080318131592144
:10012A00803180318420803180310E208031080076
:10013A007608F1007508F0007708F8007808F200F0
:10014A00003081319E2180310800B128803157204A
:10015A0080318131F02180312100DE18B528B6289E
:10016A00AB2808002400951ABB28BC28C328940190
:10017A00083095009601133092009516080076080B
:10018A00F1007508F0007708F8007808F2000230EC
:10019A0081319E2180310800F3002100DE1DD6281E
:1001AA00D728E0287308F2007208D9007108DB002A
:1001BA007008DA00DE1108000230F0000030F100A9
:1001CA0079088031D12080310030F500F600F7013E
:1001DA0080319D208031043008000130F000003069
:1001EA00F10079088031D12080310030F500F60025
:1001FA00F70180319D208031023008000230F00082
:10020A000030F10079088031D12081310030F500C9
:10021A00F600F70180319D2081310230080001305B
:10022A00F0000030F10079088031D12081310030AE
:10023A00F500F600F70180319D2081310430080075
:10024A00790886008701403FF000413FF1007908B4
:10025A00023E8600870101088031D12081310030B9
:10026A00F500F600F70180319D2081310230080047
:10027A00F101F10A2100DE184329442957295E11A8
:10028A00FF30F0007008D8008F31EE2781318F31AE
:10029A00F42781318F31F127813121005D08F00087
:1002AA007008F10071080800220090018F018C018A
:1002BA008D018E010F3021009000FF308C00CF306D
:1002CA008D00FF308E00FF308F00FF3023008F003B
:1002DA000F308D00073090003F308C0024009001D1
:1002EA008D012100951722009D0108002000A3001E
:1002FA00A401A40A2100DE18832984299B29DE147B
:10030A002000A401230803198B298C299029210094
:10031A00DC01DC0A95290230FD007D082100DC00A1
:10032A008F31F72781318031AA20813120002408BA
:10033A000800F400700871040319A429A529B62934
:10034A007435C23E860087017008C03F7108C13FFC
:10035A007208F3007408CE3E860087017308810094
:10036A00C3297435C23E86008701EA30C03F0F3088
:10037A00C13F7408CE3E8600870181010800210032
:10038A005E100230FA007A08DD00D32980312E206F
:10039A008131EF29803133208131EF295008FA0069
:1003AA007A08F9000430C23E86008701413F8A007C
:1003BA00403F0A008131FB00FC017C08003A031926
:1003CA00E729CF297B08023A0319CB29013A0319F5
:1003DA00CB29CF2908008F31EE27813121005E1CFD
:1003EA00F729F829062A803151208131003A031968
:1003FA00FF29002A062A0F302000A0002008210029
:10040A00DC0021005C082000A000A101A035A10D9C
:10041A000030200784008830213D8500013F8A0092
:10042A00003F0A0082312000A20022082100DC00DD
:10043A0008002100DE152E2A80312E2082314C2A16
:10044A0080310B20823103304C2A803133208231B3
:10045A004C2A4E08FA007A08F90043088A00420832
:10046A000A008231FB00FC017C08003A03193E2A8B
:10047A002A2A7B08013A03192A2A033A0319212A4C
:10048A00013A0319212A073A0319252A2A2A0800B8
:10049A002000A800200028088231B3228231003AC5
:1004AA000319582A592A4F2A1430F5000130F60048
:1004BA0026302000A7002708F70080319D208231CE
:1004CA000130F0000030F10025308031D120823136
:1004DA000030F500F600F7018031C4208231803106
:1004EA004C20823181313D218231013A03197E2A21
:1004FA007F2A772A08000030FB000030FA0000301B
:10050A00F9000030F800701C8B2A8C2A942A74088F
:10051A00F8077508F93D7608FA3D7708FB3D013082
:10052A00F435F50DF60DF70D890B952A0130F336E2
:10053A00F20CF10CF00C890B9C2A730872047104FA
:10054A007004031DA92AAA2A882A7B08F3007A08BC
:10055A00F2007908F1007808F0000800F100F201D1
:10056A00F20A21005E19BA2ABB2AEB2A7108F000A6
:10057A007008D800DE105E155E100E30F0007008AC
:10058A00DC00F430D6000130D700DE15EA30C200B4
:10059A000F30C300CE01EA30C4000F30C500CF01CE
:1005AA00EA30C6000F30C700D001EA30C8000F3069
:1005BA00C900D101EC30CA000F30CB00D2018F3113
:1005CA00EE2782318031B7208231F20172080800A9
:1005DA002000AA002608A9002908AD002808AC00B6
:1005EA002708AB0020002A088231B3228231003A60
:1005FA000319002B012BF72A2530F5000130F600EC
:10060A002B302000A9002908F70080319D20823173
:10061A000130F0000030F10025308031D1208231E4
:10062A000030F500F600F7018031C42082318031B4
:10063A004C20823181313D218231013A0319262B26
:10064A00272B1F2B0800803108208331FA00210054
:10065A005908860087017A0881000130FA007A0871
:10066A00D9070130DA020030DB3B5A085B04031970
:10067A003F2B402B452B80311620833105306D2BC3
:10068A00DE154F2B8031422083316D2B80313D2086
:10069A0083316D2B4E08FA007A08F90043088A0064
:1006AA0042080A008331FB00FC017C08003A031966
:1006BA005F2B4B2B7B08013A03194B2B033A031987
:1006CA00472B013A0319472B073A03194B2B4B2B9C
:1006DA0008002000AB00AC01AD0120002B088231DC
:1006EA00B3228331003A03197B2B7C2B722B033004
:1006FA00F5000130F6002C302000A7002708F7008B
:10070A0080319D2083310130F0000030F100253026
:10071A008031D12083310030F500F600F7018031B5
:10072A00C420833180314C20833181313D21833192
:10073A00013A0319A12BA22B9A2B20002D08A800FD
:10074A002C08A7002808A700A8012C08AA00A901BC
:10075A0027082904A50028082A04A60008008031D1
:10076A0051208331003A0319BB2BBC2BEC2BC92B2C
:10077A00803124208331082C803129208331082CB0
:10078A00803133208331082C21005108FA007A087D
:10079A00F9000630C23E86008701413F8A00403F89
:1007AA000A008331FB00FC017C08003A0319DE2BA6
:1007BA00C52B7B08013A0319C52B033A0319BD2B34
:1007CA00013A0319C12B073A0319C52BC52B21007E
:1007DA005E101730C23E86008701403F84008501C3
:1007EA00810A000880311A20833101302100DA029F
:1007FA000030DB3B5A085B04031D042C052C072C34
:10080A000630082C033008008031902084312930CA
:10081A002000E4009630E3007F30890B122CE30BB2
:10082A00122CE40B122C22000D160030AF00FF3000
:10083A00AE00FF30AD00FF30AC000030BF00FF302B
:10084A00BE00FF30BD00FF30BC000030CF00FF30DB
:10085A00CE00FF30CD00FF30CC000030DF00FF308B
:10086A00DE00FF30DD00FF30DC0020302000E30036
:10087A006308F00010308531092584318531B425AB
:10088A00843120002E308600003087000830A03ED8
:10089A008400013085001A30E30016001A00E30BC9
:1008AA00522C8631B0268431200031082300A3005F
:1008BA00200030082300A20020002F082300A100F6
:1008CA0020002E082300A000CB302000E400EC30EA
:1008DA00E3008430890B6F2CE30B6F2CE40B6F2C35
:1008EA000000562C803102282000A101F31F7E2C23
:1008FA007F2C8C2CF009F109F209F309F00A03198B
:10090A00F10A0319F20A0319F30AA101A10AF71F4E
:10091A008F2C902C9F2CF409F509F609F709F40A93
:10092A000319F50A0319F60A0319F70A0130F80040
:10093A007808A1060030A5000030A4000030A3000A
:10094A000030A20073087204710470040319AE2CFB
:10095A00AF2CF02CA001A00ABD2C0130F035F10D0E
:10096A00F20DF30D890BB32C0130F8007808A007BB
:10097A00F31FC02CC12CB22C0130A235A30DA40D3B
:10098A00A50D890BC22C73087702031DD62C720899
:10099A007602031DD62C71087502031DD62C700829
:1009AA007402031CD92CDA2CE32C7008F4027108A7
:1009BA00F53B7208F63B7308F73B22140130F33615
:1009CA00F20CF10CF00C890BE42C0130A002031D8F
:1009DA00EF2CF02CC12C21080319F42CF52C002D36
:1009EA00A209A309A409A509A20A0319A30A0319BA
:1009FA00A40A0319A50A2508F3002408F20023080B
:100A0A00F1002208F0000800F400F801F80AA32D0A
:100A1A00F5017808F1000130F135FF3E031D112D73
:100A2A0071357007F2007208FD3E860001308700BA
:100A3A000130F300750A222DF335890B212D730835
:100A4A0001050319292D2A2D312D22008D168D1607
:100A5A008D168D168D12352D22008D168D128D1242
:100A6A000130F1007108F50708307506031D3E2DA7
:100A7A003F2D0E2DF6017808F1000130F135FF3EC9
:100A8A00031D432D71357007F2007208FE3E860081
:100A9A00013087000130F300760A542DF335890BB3
:100AAA00532D7308010503195B2D5C2D622D8D16DC
:100ABA008D168D168D168D12652D8D168D128D1231
:100ACA000130F1007108F60708307606031D6E2D15
:100ADA006F2D402DF7017808F1000130F135FF3E06
:100AEA00031D732D71357007F2007208FC3E8600F3
:100AFA00013087000130F300770A842DF335890B22
:100B0A00832D7308010503198B2D8C2D922D8D16BB
:100B1A008D168D168D168D12952D8D168D128D12A0
:100B2A000130F1007108F70708307706031D9E2D82
:100B3A009F2D702D0130F1007108F80778087402B2
:100B4A000318A82DA92D0D2D22008D168D12E43023
:100B5A0000320032890BAD2D0032003208004D30D0
:100B6A0086000030870016302000C80000301E00C2
:100B7A00C80BBC2DAA30C8004808A5004D30C900D2
:100B8A004908A6001630A7000030A8007730823145
:100B9A00ED22853120004E08C800C9014D08CA005F
:100BAA00CB014A08CB00CA0148084A042100A80020
:100BBA00200049084B042100A90020005008C80061
:100BCA00C9014F08CA00CB014A08CB00CA0148082C
:100BDA004A042100AA00200049084B042100AB0066
:100BEA0020005208C800C9015108CA00CB014A08AE
:100BFA00CB00CA0148084A042100AC002000490879
:100C0A004B042100AD0020005408C800C901530854
:100C1A00CA00CB014A08CB00CA0148084A0421008D
:100C2A00AE00200049084B042100AF0020005608FE
:100C3A00C800C9015508CA00CB014A08CB00CA013D
:100C4A0048084A042100B000200049084B0421004A
:100C5A00B10020005808C800C9015708CA00CB01D2
:100C6A004A08CB00CA0148084A042100B200200001
:100C7A0049084B042100B30020005A08C800C901E2
:100C8A005908CA00CB014A08CB00CA0148084A04DD
:100C9A002100B400200049084B042100B5002000BF
:100CAA005C08C800C9015B08CA00CB014A08CB002E
:100CBA00CA0148084A042100B600200049084B042A
:100CCA002100B70020005E08C800C9015D08CA00FB
:100CDA00CB014A08CB00CA0148084A042100BC00DB
:100CEA00200049084B042100BD0020006008C8000C
:100CFA00C9015F08CA00CB014A08CB00CA014808EB
:100D0A004A042100BE00200049084B042100BF000C
:100D1A0020006208C800C9016108CA00CB014A085C
:100D2A00CB00CA0148084A042100C0002000490833
:100D3A004B042100C1000830A03E860087012E30F6
:100D4A008400003085001A302000C80016001A00FE
:100D5A00C80BAB2E080000302000C2000030C100D2
:100D6A000030C0000030BF000030C6000030C500AF
:100D7A000030C4000030C3000030CA000030C9008F
:100D8A000030C8000030C700F430B2003208A500B5
:100D9A002E30B3003308A600773082314D228631D7
:100DAA002F302000B200BF30890BD92EB20BD92EBA
:100DBA000032F6302000B2003208A50077308331C5
:100DCA006E23863120002508C7002608C800C901FD
:100DDA00CA01210032082000B20021003308200095
:100DEA00B300B401B5014708B6004808B70049087E
:100DFA00B8004A08B9003208B6023308B73B3408CB
:100E0A00B83B3508B93B3908F3003808F20037080F
:100E1A00F1003608F00021003008F4003108F5002E
:100E2A00F601F70182318022863170082000BA006B
:100E3A007108BB007208BC007308BD000F30BE0009
:100E4A00BD37BC0CBB0CBA0CBE0B252F3D08CE001F
:100E5A003C08CD003B08CC003A08CB004E084D04B4
:100E6A004C044B04031D3A2F3B2F4C2F2100400802
:100E7A004104031D412F422F4C2F00302000B100A6
:100E8A000030B0000030AF000030AE00DC2F200090
:100E9A004B08B2004C08B3004D08B4004E08B50028
:100EAA00210040082000B600210041082000B700B8
:100EBA000030B71BFF30B800B9003608B207370850
:100ECA00B33D3808B43D3908B53D3508F300340858
:100EDA00F2003308F1003208F0001E30A03E86000E
:100EEA008701403FBA00413FBB000B30BA35BB0D0A
:100EFA00890B7B2F3A08F4003B08F500890D893BE2
:100F0A008909F600F70084317924863173082000B4
:100F1A00C2007208C1007108C0007008BF004B0807
:100F2A003F07B2004C08403DB3004D08413DB400B4
:100F3A004E08423DB50035082100BB0020003408A8
:100F4A002100BA00200033082100B900200032082D
:100F5A002100B80008302000B2000030B300003091
:100F6A00B4000030B5001830A03E86008701403F2B
:100F7A00B207413FB33D423FB43D433FB53D043024
:100F8A00B600B537B40CB30CB20CB60BC62F350885
:100F9A00C6003408C5003308C4003208C300460836
:100FAA00B1004508B0004408AF004308AE0008008D
:100FBA006530840000308500073080315D2087313C
:100FCA00A0308400003085003F3080315D208731B9
:100FDA002030840001308500403080315D20873127
:100FEA00A030840001308500383080315D2087319F
:100FFA0020008431092C1F3400347B3400346A34D5
:10100A000034B434033428340334633400341E34D3
:10101A00023424340034293400342E340034333476
:10102A000034383400343D34003442340034473418
:06103A000034C43401344F
:101FD4000130080005300800200091110800240099
:101FE400951208002100911108002400161408001D
:0C1FF400240096140800240016150800B4
:020000040001F9
:08000000FF3FFF3FFF3FFF3F00
:04000E00E43FFF3F8D
:00000001FF
