:0400000080313F28E4
:100008007E1480310B1E09280A2817288B1C0D28FE
:100018000E2817288131FB218031FB181428152858
:100028003D287B143D280B1F1A281B283D2821003A
:10003800111C1F2820283D282000111C24282528B1
:100048003D28813181218031033020006602E8306B
:1000580003196502031C3128322839287B15E5016C
:10006800E6018231072280313D280130E507003062
:10007800E63D7E10090080314128F901FA01FB01B3
:1000880020308400003085004C308131E9218031F6
:10009800A03084000030850038308131E92180317A
:1000A800203084000130850040308131E9218031E1
:1000B8007E1020008031E6282100D800D901D90A15
:1000C800D528DA010130F5005A0A6B28F535890B75
:1000D8006A28750873050319722873287A2822007C
:1000E8008D168D168D168D168D127E2822008D1672
:1000F8008D128D120130F50075082100DA070830DD
:100108005A06031D882889286628DB010130F50076
:100118005B0A8F28F535890B8E2875087205031937
:10012800962897289E2822008D168D168D168D16D6
:100138008D12A22822008D168D128D120130F50025
:1001480075082100DB0708305B06031DAC28AD28C5
:100158008A28DC010130F5005C0AB328F535890BE3
:10016800B228750874050319BA28BB28C2282200CA
:100178008D168D168D168D168D12C62822008D1699
:100188008D128D120130F50075082100DC0708304A
:100198005C06031DD028D128AE280130F50075086B
:1001A800D907590858020318DA28DB2865282200DD
:1001B8008D168D12E43000320032890BDF280032B0
:1001C800003208008131972180310B178B130530DD
:1001D800F7000F30F600F130890BF028F60BF02805
:1001E800F70BF028000022000D168B177B1CFD284A
:1001F800FE2815298B136430F6007608F200643067
:10020800F7007708F3006430F8007808F40010303D
:100218008031602080318B177B10FB1482310422DF
:1002280080317B1D18291929FA288B13F201F30153
:10023800F40110308031602080318B17FB107B1166
:10024800FA2880313F28220090018F018C018D010E
:100258008E010F3021009000FF308C00CF308D00D0
:10026800FF308E00FF308F00FF3023008F000E30EC
:100278008D00073090003F308C00240090018D01E4
:100288002100951722009D01080000340034003435
:1002980000340034003400340034003400340034B6
:1002A80000340034003400340034003400340034A6
:1002B8000034003400340034003400340034003496
:1002C8000034003400340034003420009901153023
:1002D8009700A030960011101708FA001608F900C8
:1002E800210011140A30F2000230F3008131EF21AD
:1002F80081313130200098000800200011107A0860
:10030800F1007908F0008131AA21813120006708C5
:100318006804031990299129962968088A006708B2
:100328000A00813108008131E021813181312721A2
:1003380081318131C821813182310022813181317D
:10034800692181318131D421813108002000181DB3
:10035800AE29AF29B62918107108970070089600C1
:100368001814BA2971089700700896000800200030
:1003780069086A040319C129C229C7296A088A00B9
:1003880069080A008131080070302100990098013D
:100398002200960121001A1FD229D329CE2908004C
:1003A8008B10210015170B30F2000230F300813159
:1003B800F52181310B1608002400940108309500BE
:1003C80096011330920095120800640080010131F3
:1003D800890BEA29003473082000E8007208E70056
:1003E800080073082000EA007208E90008008B1072
:1003F8008131BB21813108001630210097000800A7
:100408002000181408002000181008000800080030
:020000040001F9
:08000000FF3FFF3FFF3FFF3F00
:04000E00E43FFF3F8D
:00000001FF
