:0400000080314328E0
:100008007E1480310B1E09280A281A288B1C0D28FB
:100018000E281A28823114228031FB18142815283A
:1000280016287B142000E501E60141280B1F1D2836
:100038001E2841282100111C22282328412820009D
:10004800111C27282828412881319A218031033022
:1000580020006602E83003196502031C342835289D
:100068003C287B15E501E6018231202280314128B8
:100078000130E5070030E63D41287E100900803157
:100088004528F901FA01FB01203084000030850081
:100098004C30823102228031A0308400003085004B
:1000A80038308231022280312030840001308500CE
:1000B80040308231022280317E1020008031EA28CF
:1000C8002100D800D901D90AD928DA010130F50070
:1000D8005A0A6F28F535890B6E28750873050319B8
:1000E800762877287E2822008D168D168D168D1677
:1000F8008D12822822008D168D128D120130F50086
:1001080075082100DA0708305A06031D8C288D2847
:100118006A28DB010130F5005B0A9328F535890B65
:1001280092287508720503199A289B28A22822008C
:100138008D168D168D168D168D12A62822008D16F9
:100148008D128D120130F50075082100DB0708308B
:100158005B06031DB028B1288E28DC010130F500AC
:100168005C0AB728F535890BB62875087405031994
:10017800BE28BF28C62822008D168D168D168D160E
:100188008D12CA2822008D168D128D120130F500AD
:1001980075082100DC0708305C06031DD428D52823
:1001A800B2280130F5007508D90759085802031814
:1001B800DE28DF28692822008D168D12E4300032EF
:1001C8000032890BE3280032003208008131B02167
:1001D80080310B178B130530F7000F30F600F13024
:1001E800890BF428F60BF428F70BF42800002200FA
:1001F8000D168B1720008D1C022903290A29FB18CC
:100208000629072908297B14E501E6017B1C0D292D
:100218000E2925298B13FF30F6007608F200FF30EF
:10022800F7007708F300FF30F8007808F400103082
:100238008031642080318B177B10FB1482311D22A2
:1002480080317B1D28292929FE288B13FF30F600D1
:100258007608F200FF30F7007708F300FF30F80067
:100268007808F40010308031642080318B17FB103F
:100278007B11FE2880314328220090018F018C01D8
:100288008D018E010F3021009000FF308C00CF309F
:100298008D00FF308E00FF308F00FF3023008F006D
:1002A8000E308D00073090003F308C002400900104
:1002B8008D012100951722009D01080000340034AB
:1002C8000034003400340034003400340034003486
:1002D8000034003400340034003400340034003476
:1002E8000034003400340034003400340034003466
:1002F8000034003400340034003400342000990104
:1003080015309700A030960011101708FA0016084B
:10031800F900210011142330F2000230F300823179
:100328000822813131302000980008002000111087
:100338007A08F1007908F0008131C3218131200069
:10034800670868040319A929AA29AF2968088A0037
:1003580067080A00813108008131F9218131813132
:10036800402181318131E12181318231192281316C
:100378008131822181318131ED21813108002000D4
:10038800181DC729C829CF291810710897007008A7
:1003980096001814D3297108970070089600080071
:1003A800200069086A040319DA29DB29E0296A08A8
:1003B8008A0069080A00813108007030210099001C
:1003C80098012200960121001A1FEB29EC29E72940
:1003D80008008B10210015172430F2000230F300BA
:1003E80082310E2281310B16080024009401083056
:1003F8009500960113309200951208006400800160
:100408000131890B032A003473082000E8007208C0
:10041800E700080073082000EA007208E9000800F5
:100428008B108131D42182310800163021009700C9
:100438000800200018140800200018100800080000
:020448000800AA
:020000040001F9
:08000000FF3FFF3FFF3FFF3F00
:04000E00E43FFF3F8D
:00000001FF
