:08000000803102288731FD2F39
:100E6600163021009700080087315D2787318731CA
:100E760041278731873133278731080070302100B9
:100E8600990098012200960121001A1F4B2F4C2F22
:100E9600472F0800873137278731F001FF30F900E7
:100EA6007908F100F201103087317F2787315A2FF8
:100EB60080310228220090018F018C018D018E0164
:100EC6000F3021009000FF308C00CF308D00FF30B6
:100ED6008E00FF308F00FF3023008F000F308D0013
:100EE600073090003F308C00240090018D012100D6
:100EF600951722009D010800F400F501F50AEC2F74
:100F0600F6010130F300760A892FF335890B882F15
:100F1600730871050319902F912F982F22008D16B3
:100F26008D168D168D168D129C2F22008D168D1204
:100F36008D120130F3007308F60708307606031D9C
:100F4600A52FA62F842FF7010130F300770AAC2FC7
:100F5600F335890BAB2F730870050319B32FB42F24
:100F6600BA2F8D168D168D168D168D12BD2F8D16D8
:100F76008D128D120130F3007308F70708307706DB
:100F8600031DC62FC72FA72FF8010130F300780ADB
:100F9600CD2FF335890BCC2F730872050319D42F87
:100FA600D52FDB2F8D168D168D168D168D12DE2FF5
:100FB6008D168D128D120130F3007308F807083074
:100FC6007806031DE72FE82FC82F0130F3007308BA
:100FD600F507750874020318F12FF22F832F2200EC
:100FE6008D168D12E43000320032890BF62F003256
:0A0FF60000320800200087314D2F63
:020000040001F9
:08000000FF3FFF3FFF3FFF3F00
:04000E00E43FFF3F8D
:00000001FF
