:0400000080314528DE
:100008007E1480310B1E09280A2815288B1C0D2800
:100018000E2815288231732280312000E301E30A7B
:1000280043280B1F1828192843282100111C1D28B4
:100038001E2843282000111C222823284328813108
:10004800F9218031033020006202E830031961028F
:10005800031C2F2830283E28F001F101F20110304E
:100068008031EE2080312000E101E20182317F22DF
:10007800803143280130E1070030E23D43287E10FB
:10008800090080314728F901FA01FB01FC01FD0153
:100098002030840000308500443082316122803174
:1000A800A0308400003085003E30823161228031EA
:1000B8002030840001308500403082316122803157
:1000C8007E10200081316C292000E800E901E90A4E
:1000D800DD28EA010130E7006A0A7328E735890B51
:1000E80072286708650503197A287B288228220068
:1000F8008D168D168D168D168D12862822008D165A
:100108008D128D1201302000E7006708EA070830D9
:100118006A06031D902891286E28EB010130E7003C
:100128006B0A9728E735890B962867086405031931
:100138009E289F28A62822008D168D168D168D16AE
:100148008D12AA2822008D168D128D1201302000E2
:10015800E7006708EB0708306B06031DB428B528CD
:100168009228EC010130E7006C0ABB28E735890BBF
:10017800BA28670866050319C228C328CA282200B6
:100188008D168D168D168D168D12CE2822008D1681
:100198008D128D1201302000E7006708EC07083047
:1001A8006C06031DD828D928B6280130E70067084F
:1001B800E907690868020318E228E3286D28220085
:1001C8008D168D12E43000320032890BE728003298
:1001D80000320800F400F501F50A5B29F601013048
:1001E800F300760AF828F335890BF72873087105A8
:1001F8000319FF280029072922008D168D168D1650
:100208008D168D120B2922008D168D128D1201303C
:10021800F3007308F60708307606031D142915291C
:10022800F328F7010130F300770A1B29F335890B0E
:100238001A297308700503192229232929298D16DB
:100248008D168D168D168D122C298D168D128D12E8
:100258000130F3007308F70708307706031D3529C6
:1002680036291629F8010130F300780A3C29F335BC
:10027800890B3B29730872050319432944294A2924
:100288008D168D168D168D168D124D298D168D1283
:100298008D120130F3007308F80708307806031D43
:1002A8005629572937290130F3007308F5077508CF
:1002B8007402031860296129F22822008D168D1214
:1002C800E43000320032890B652900320032080020
:1002D80082310E22813129302000EE009630ED0067
:1002E8007F30890B7529ED0B7529EE0B75292200D6
:1002F8000D168B17200063080319832984297E298A
:100308008B13FF30ED006D08E400FF30EE006E083F
:10031800E500FF30EF006F08E600103080316820FC
:1003280081312000E3018B1782317C2281317E29C3
:1003380080314528220090018F018C018D018E01AA
:100348000F3021009000FF308C00CF308D00FF303F
:100358008E00FF308F00FF3023008F000E308D009D
:10036800073090003F308C00240090018D0121005F
:10037800951722009D010800003400340034003431
:1003880000340034003400340034003400340034C5
:1003980000340034003400340034003400340034B5
:1003A80000340034003400340034003400340034A5
:1003B80000340034003400342000990115309700CF
:1003C800A030960011101708FC001608FB00210049
:1003D800111482302000E4000230E50082316722E7
:1003E80081313130200098000800200011107C086D
:1003F800F1007B08F00082312122813179087A04EA
:100408000319072A082A0D2A7A088A0079080A0097
:100418008231080082315822823181319E21823115
:1004280082314C2282318231782282318131E0213D
:10043800823182313222823108002000181D252A9B
:10044800262A2D2A1810710897007008960018148B
:10045800312A710897007008960008008B10210057
:10046800151783302000E4000230E50082316D2248
:1004780082310B16080020005F0860040319452A22
:10048800462A4B2A60088A005F080A008231080061
:1004980070302100990098012200960121001A1F4E
:1004A800562A572A522A0800240094010830950039
:1004B8009601133092009512080064008001013102
:1004C800890B622A003420006508FA006408F900E4
:1004D800080020006508E0006408DF0008008B10B1
:1004E80082313F228231080016302100970008002F
:1004F8002000181408002000181008000800080040
:020000040001F9
:08000000FF3FFF3FFF3FFF3F00
:04000E00E43FFF3F8D
:00000001FF
